{
  "contractName": "TestPlaceholderVerifierUnifiedAddition",
  "abi": [
    {
      "inputs": [
        {
          "internalType": "uint256",
          "name": "modulus",
          "type": "uint256"
        },
        {
          "internalType": "uint256",
          "name": "r",
          "type": "uint256"
        },
        {
          "internalType": "uint256",
          "name": "max_degree",
          "type": "uint256"
        },
        {
          "internalType": "uint256",
          "name": "lambda",
          "type": "uint256"
        },
        {
          "internalType": "uint256",
          "name": "m",
          "type": "uint256"
        },
        {
          "internalType": "uint256",
          "name": "rows_amount",
          "type": "uint256"
        },
        {
          "internalType": "uint256",
          "name": "omega",
          "type": "uint256"
        },
        {
          "internalType": "uint256",
          "name": "columns_number",
          "type": "uint256"
        }
      ],
      "name": "set_initial_params",
      "outputs": [],
      "stateMutability": "nonpayable",
      "type": "function"
    },
    {
      "inputs": [
        {
          "internalType": "uint256[]",
          "name": "U",
          "type": "uint256[]"
        }
      ],
      "name": "set_U",
      "outputs": [],
      "stateMutability": "nonpayable",
      "type": "function"
    },
    {
      "inputs": [
        {
          "internalType": "uint256[]",
          "name": "V",
          "type": "uint256[]"
        }
      ],
      "name": "set_V",
      "outputs": [],
      "stateMutability": "nonpayable",
      "type": "function"
    },
    {
      "inputs": [
        {
          "internalType": "uint256[]",
          "name": "D_omegas",
          "type": "uint256[]"
        }
      ],
      "name": "set_D_omegas",
      "outputs": [],
      "stateMutability": "nonpayable",
      "type": "function"
    },
    {
      "inputs": [
        {
          "internalType": "uint256[]",
          "name": "q",
          "type": "uint256[]"
        }
      ],
      "name": "set_q",
      "outputs": [],
      "stateMutability": "nonpayable",
      "type": "function"
    },
    {
      "inputs": [
        {
          "internalType": "int256[]",
          "name": "rotations",
          "type": "int256[]"
        },
        {
          "internalType": "uint256",
          "name": "i",
          "type": "uint256"
        }
      ],
      "name": "set_column_rotations",
      "outputs": [],
      "stateMutability": "nonpayable",
      "type": "function"
    },
    {
      "inputs": [
        {
          "internalType": "bytes",
          "name": "blob",
          "type": "bytes"
        }
      ],
      "name": "verify",
      "outputs": [],
      "stateMutability": "nonpayable",
      "type": "function"
    }
  ],
  "bytecode": "0x608060405234801561001057600080fd5b50613d0d806100206000396000f3fe608060405234801561001057600080fd5b506004361061007d5760003560e01c8063962354851161005b57806396235485146100bd578063ab5ecfbb146100d0578063d51b539c146100e3578063e951e5d4146100f657600080fd5b80633370e037146100825780636479520f146100975780638e760afe146100aa575b600080fd5b6100956100903660046138d7565b610109565b005b6100956100a5366004613919565b61011a565b6100956100b8366004613965565b61014f565b6100956100cb3660046138d7565b61053f565b6100956100de3660046138d7565b61054b565b6100956100f13660046138d7565b610557565b6100956101043660046139d7565b610563565b61011560088383613760565b505050565b8282600b600201838154811061013257610132613a2c565b906000526020600020019190610149929190613760565b50505050565b60008061019184848080601f016020809104026020016040519081016040528093929190818152602001838380828437600092018290525092506105fc915050565b90925090508281146102105760405162461bcd60e51b815260206004820152602660248201527f50726f6f66206c656e6774682077617320646574656374656420696e636f727260448201527f6563746c7921000000000000000000000000000000000000000000000000000060648201526084015b60405180910390fd5b60408051602080820180845260008084528451808401865281815284519092208252845160a081018652815481526001548185015260025481870152600354606080830191909152865160e08101885260048054825260055482880152600654828a0152600780548a51818a0281018a01909b52808b5298999698959794968896608089019694959394938601939192918301828280156102d057602002820191906000526020600020905b8154815260200190600101908083116102bc575b505050505081526020016004820180548060200260200160405190810160405280929190818152602001828054801561032857602002820191906000526020600020905b815481526020019060010190808311610314575b505050505081526020016005820180548060200260200160405190810160405280929190818152602001828054801561038057602002820191906000526020600020905b81548152602001906001019080831161036c575b50505050508152602001600682018054806020026020016040519081016040528092919081815260200182805480156103d857602002820191906000526020600020905b8154815260200190600101908083116103c4575b5050505050815250508152505090506000600b604051806060016040529081600082015481526020016001820154815260200160028201805480602002602001604051908101604052809291908181526020016000905b8282101561049b5760008481526020908190208301805460408051828502810185019091528181529283018282801561048757602002820191906000526020600020905b815481526020019060010190808311610473575b50505050508152602001906001019061042f565b505050508152505090506104e988888080601f016020809104026020016040519081016040528093929190818152602001838380828437600092018290525092508791508a90508686610759565b6105355760405162461bcd60e51b815260206004820152601560248201527f50726f6f66206973206e6f7420636f72726563742100000000000000000000006044820152606401610207565b5050505050505050565b610115600a8383613760565b61011560078383613760565b61011560098383613760565b6000889055600185905560028790556003849055600488905560058790556006869055600b839055600c8290558067ffffffffffffffff8111156105a9576105a9613a42565b6040519080825280602002602001820160405280156105dc57816020015b60608152602001906001900390816105c75790505b5080516105f191600d916020909101906137ab565b505050505050505050565b6106606040518061018001604052806000815260200160008152602001600081526020016000815260200160008152602001600081526020016000815260200160008152602001600081526020016000815260200160008152602001600081525090565b600061066c8484611683565b80835261067a9085906116b1565b6020830181905261068c9085906116b1565b6040830181905261069e9085906116f0565b606083018190526106b09085906116fd565b608083018190526106c29085906116fd565b60a083018190526106d49085906116fd565b60c083018190526106e69085906116fd565b60e083018190526106f89085906116fd565b610100830181905261070b9085906116fd565b610120830181905261071e9085906116fd565b61014083018190526107319085906116fd565b610160830181905283906107469086906116fd565b6107509190613a6e565b90509250929050565b60006107d6604051806101e0016040528060008152602001600081526020016000815260200160608152602001600081526020016060815260200160008152602001600081526020016060815260200160608152602001600081526020016000815260200160008152602001600081526020016000151581525090565b6107e488866000015161173f565b6020830152815260005b815181101561083757610812878a6008856020015161080d9190613a85565b611756565b61082089836020015161188a565b60208301528061082f81613a9d565b9150506107ee565b5061084c888660c00151016020015160c01c90565b8160000181815250506108b260405180610160016040528060008152602001600081526020016060815260200160608152602001606081526020016000815260200160008152602001600081526020016000815260200160008152602001600081525090565b815167ffffffffffffffff8111156108cc576108cc613a42565b6040519080825280602002602001820160405280156108f5578160200160208202803683370190505b506040820152606086015189016020015160c01c60005b8351811015610aa75760005b8660400151828151811061092e5761092e613a2c565b602002602001015151811015610997578660400151828151811061095457610954613a2c565b6020026020010151818151811061096d5761096d613a2c565b60200260200101516000141561098557604085018190525b8061098f81613a9d565b915050610918565b50818110156109e4576109bd8b6109b38d8b60600151856118a9565b86604001516118ec565b836040015182815181106109d3576109d3613a2c565b602002602001018181525050610a95565b6109f98b896101000151016020015160c01c90565b610a039083613a85565b811015610a29576109bd8b6109b38d8b61010001518686610a249190613a6e565b6118a9565b610a3e8b896101000151016020015160c01c90565b610a488383613a6e565b610a529190613a6e565b6101a08501819052610120890151610a72918d916109b3918391906118a9565b83604001518281518110610a8857610a88613a2c565b6020026020010181815250505b80610a9f81613a9d565b91505061090c565b508551825260408701518a0160200151602083015260c0870151610ad1908b016020015160c01c90565b67ffffffffffffffff811115610ae957610ae9613a42565b604051908082528060200260200182016040528015610b12578160200160208202803683370190505b50606083015260c0870151610b2990600890613a85565b602084015260005b826060015151811015610b8f5760208401518b0160500183606001518281518110610b5e57610b5e613a2c565b602002602001018181525050610b788b8560200151611912565b602085015280610b8781613a9d565b915050610b31565b50610ba48a8860e00151016020015160c01c90565b67ffffffffffffffff811115610bbc57610bbc613a42565b604051908082528060200260200182016040528015610be5578160200160208202803683370190505b50608083015260e0870151610bfc90600890613a85565b602084015260005b826080015151811015610c625760208401518b0160500183608001518281518110610c3157610c31613a2c565b602002602001018181525050610c4b8b8560200151611912565b602085015280610c5a81613a9d565b915050610c04565b50610c7f8a60088960800151610c789190613a85565b60006118ec565b60a08301526080870151610ca2908b90610c9b90600890613a85565b60016118ec565b60c08301528551610cb4908990611965565b60e08301528551610cc6908990611965565b610100830152610cdc888b61080d60088d613a85565b610cf28a6008896101600151610c789190613a85565b82610140018181525050610d1b8a610c788c60088b6101600151610d169190613a85565b611912565b610120830152610d2a826119a3565b606084015260408051600b80825261018082019092526000916020820161016080368337505060006101a0870152506060890151909150610d6d90600890613a85565b602085015260005b600b811015610e925786604001518181518110610d9457610d94613a2c565b602002602001015151600114610da957600080fd5b60005b87604001518281518110610dc257610dc2613a2c565b602002602001015151811015610e6c5787604001518281518110610de857610de8613a2c565b60200260200101518181518110610e0157610e01613a2c565b6020026020010151600014610e1557600080fd5b610e248d876020015183611b22565b83876101a0015181518110610e3b57610e3b613a2c565b60209081029190910101526101a08601805190610e5782613a9d565b90525080610e6481613a9d565b915050610dac565b50610e7b8c8660200151611912565b602086015280610e8a81613a9d565b915050610d75565b50610edb60405180610100016040528060008152602001600081526020016000815260200160608152602001600081526020016000815260200160608152602001606081525090565b87518152600160208201528751610ef3908b90611965565b6040828101919091528051600180825281830190925290602080830190803683375050506060820152610140890151610f3b908d90610f3490600890613a85565b6000611b22565b8160600151600081518110610f5257610f52613a2c565b602002602001018181525050610f688282611b3f565b6080860152604080516009808252610140820190925290602082016101208036833750505060a086018190528851610fa1918c91611d51565b610faf8c8a6020015161173f565b6020870152855260005b8551811015610ffd57610fd88b8e6008896020015161080d9190613a85565b610fe68d876020015161188a565b602087015280610ff581613a9d565b915050610fb9565b5061100c8a8960000151611965565b60c0860181905260408a01518d01602001511461103157600095505050505050611679565b61103f8c8a6060015161173f565b6020870152855260005b85518110156111d9578760400151818151811061106857611068613a2c565b60200260200101515167ffffffffffffffff81111561108957611089613a42565b6040519080825280602002602001820160405280156110b2578160200160208202803683370190505b5061010087015260005b886040015182815181106110d2576110d2613a2c565b60200260200101515181101561117f57895160408a01518051829190859081106110fe576110fe613a2c565b6020026020010151838151811061111757611117613a2c565b60200260200101516111299190613ab8565b6111339190613b26565b60e0880181905260208a01518b5161114b9290611dcd565b60e088018190528a5160c0890151909190098160200260206101008a0151010152808061117790613a9d565b9150506110bc565b506111968d87602001518861010001518e8d611e11565b5015156101c087018190526111b45760009650505050505050611679565b6111c28d8760200151611912565b6020870152806111d181613a9d565b915050611049565b506040805160028082526060820183529091602083019080368337505050610100860181905260c0860151815190919060009061121857611218613a2c565b6020026020010181815250508751602088015160c0870151096040610100870151015261124c8c8a608001518c8b8961210c565b61125e57600095505050505050611679565b6040805160018082528183019092529060208083019080368337505050610100860181905260c0860151815190919060009061129c5761129c613a2c565b6020026020010181815250506112b98c8a60a001518c8b8961210c565b6112cb57600095505050505050611679565b6112dc8c8a60c001518c8b8961210c565b6112ee57600095505050505050611679565b6112ff8c8a60e001518c8b8961210c565b61131157600095505050505050611679565b6113238c8a61010001518c8b8961210c565b61133557600095505050505050611679565b6113478c8a61012001518c8b8961210c565b61135957600095505050505050611679565b61136b8c8a61014001518c8b8961210c565b61137d57600095505050505050611679565b61138f8c8a61016001518c8b8961210c565b6113a157600095505050505050611679565b6040805160098082526101408201909252906020820161012080368337505050610120860152606085015180516000906113dd576113dd613a2c565b60200260200101518561012001516000815181106113fd576113fd613a2c565b602002602001018181525050846060015160018151811061142057611420613a2c565b602002602001015185610120015160018151811061144057611440613a2c565b602002602001018181525050846060015160028151811061146357611463613a2c565b602002602001015185610120015160028151811061148357611483613a2c565b602090810291909101015260035b60088110156114d057600086610120015182815181106114b3576114b3613a2c565b6020908102919091010152806114c881613a9d565b915050611491565b5084608001518561012001516008815181106114ee576114ee613a2c565b6020908102919091010152600061014086018190525b600981101561154e57885189518260200260206101208a015101015183602002602060a08b015101015109610140880151086101408701528061154681613a9d565b915050611504565b50600061016086015260a0890151611567908d9061173f565b6020870152855260005b85518110156116125761158a8d876020015160006118ec565b8660400181815250506115c28660c00151828b608001516040015160016115b19190613a85565b6115bb9190613b3a565b8b51611dcd565b60e087018190528951604088015190919009604087015288516040870151610160880151086101608701526115fb8d8760200151611912565b60208701528061160a81613a9d565b915050611571565b5060c085015187518951611627929190611dcd565b61018086018190528851906000198201900861018086015287516101608601516101808701510961018086018190526101408601511461166f57600095505050505050611679565b6001955050505050505b9695505050505050565b6000611690600883613a85565b61169b906020613a85565b905082518111156116ab57600080fd5b92915050565b60006116be600883613a85565b905082518111156116ce57600080fd5b8160208401015160c01c6020600801028101905082518111156116ab57600080fd5b600061169b826020613a85565b60008061170a848461218e565b9250905060005b818110156117375761172385846121bc565b92508061172f81613a9d565b915050611711565b505092915050565b8181016020015160c01c6000610750600884613a85565b815181106117cc5760405162461bcd60e51b815260206004820152603560248201527f7570646174655f7472616e7363726970745f6233325f62795f6f66667365743a60448201527f206f6666736574203c20626c6f622e6c656e67746800000000000000000000006064820152608401610207565b8082516117d99190613a6e565b6020111561184f5760405162461bcd60e51b815260206004820152603b60248201527f7570646174655f7472616e7363726970745f6233325f62795f6f66667365743a60448201527f203332203c3d20626c6f622e6c656e677468202d206f666673657400000000006064820152608401610207565b818101602001516101498482815160408051602080820193909352808201939093528051808403820181526060909301905281519101209052565b6000611897600883613a85565b6118a2906020613a85565b9392505050565b6000806118b6858561173f565b9250905060005b838110156118e3576118cf8684611912565b9250806118db81613a9d565b9150506118bd565b50509392505050565b600061190a846118fd856028613a85565b6020850201016028015190565b949350505050565b600061191e838361188a565b905061192a838261220f565b90506000611938848361173f565b9250905060005b81811015611737576119518584612232565b92508061195d81613a9d565b91505061193f565b815160405160009161197d9160200190815260200190565b60408051601f1981840301815291905280516020909101208084526118a2908390613b26565b606081604001515182606001515110156119d95760405162461bcd60e51b81526020600482015260006024820152604401610207565b8160400151518260800151511015611a0d5760405162461bcd60e51b81526020600482015260006024820152604401610207565b604080516003808252608082019092529060208201606080368337019050509050815160018060205b604086015151602002602001811015611a9f57838485610100890151878560608c015101515160e08c015109088360408a015101510884099250838485610100890151878560808c015101515160e08c015109088360408a015101510883099150602001611a36565b50602085015160018114611ab95760006020860152611aca565b8360a0870151850360010860208601525b508283848460a0890151098503858460c08a01510908848561012089015187036101408a0151880308600108096040850152505060a08301518190819080820390829080090861014085015109606083015250919050565b600061190a84611b33856028613a85565b60208502010160280190565b6000600b83511015611b5057600080fd5b60018260600151511015611b6357600080fd5b600090508151602083015160408401518283602088015151850360608901515108610100880151510983848483098608945083828409925083846101008901515186036001088503856101608a0151518760208c015151890360608d01515108090890508384848309860894508382840992508384858660408b015151880360808c015151088703876101208c0151518960208e0151518b0360608f015151080908866101008b0151518803600108098586878860208d01515160208e01515109600309888960408e0151516101208f01515109600209086101008b01515109089050838484830986089450838284099250838460a0890151518660608b01515160208c015151080861012089015151908603908690800908905083848483098608945083828409925083846040890151518603868760a08c015151890360208d015151086101208c0151510908850360c089015151089050838484830986089450838284099250838460e08901515186036101008a015151088560408a015151870360808b015151080990508384848309860894508382840992508360e0880151518503856101408a0151518760408c015151890360808d015151080908905083848483098608945050828183099150508060208501525080602060608501510151518309949350505050565b81511561011557825160005b8351811015611dc55760408051602081018490520160408051601f1981840301815291905280516020909101209150611d968383613b26565b848281518110611da857611da8613a2c565b602090810291909101015280611dbd81613a9d565b915050611d5d565b508352505050565b600060405160208152602080820152602060408201528460608201528360808201528260a082015260208160c08360055afa611e0857600080fd5b51949350505050565b845160009081908610611e2357600080fd5b6000868851611e329190613a6e565b9050611e4060286008613a85565b915080821115611e4f57600080fd5b6040805180820190915260008152606060208201526048898901015160c01c808252602002929092019181611e85846008613a85565b1115611e9057600080fd5b82880160208a01015160c01c60208601518114611eac57600080fd5b5080516008939093019267ffffffffffffffff811115611ece57611ece613a42565b604051908082528060200260200182016040528015611ef7578160200160208202803683370190505b506020808301829052016030890160005b8351602002811015611f2a576020828d01810151828501529182019101611f08565b505050611f408782602001518760000151612279565b608086015160a00152604080516001808252818301909252906020808301908036833701905050856080015160c001819052506001856080015160c00151600081518110611f9057611f90613a2c565b602090810291909101015260408051600280825260608201909252600091816020016020820280368337019050509050600181600181518110611fd557611fd5613a2c565b60200260200101818152505060005b885181101561206757888181518110611fff57611fff613a2c565b602002602001015187600001516120169190613a6e565b8260008151811061202957612029613a2c565b60200260200101818152505061204c876080015160c0015183896000015161237e565b608088015160c001528061205f81613a9d565b915050611fe4565b5060005b86602001518110156120f9576000806120938d612088898f613a85565b8c8c60800151612458565b91509150816120d85760006120a784612a52565b906120c55760405162461bcd60e51b81526004016102079190613b59565b5060008097509750505050505050612102565b6120e28188613a85565b9650505080806120f190613a9d565b91505061206b565b50600194505050505b9550959350505050565b6000612118868661173f565b6020840152825260005b825181101561217f576121418784602001518561010001518888611e11565b5015156101c0840181905261215a576000915050612185565b612168878460200151611912565b60208401528061217781613a9d565b915050612122565b50600190505b95945050505050565b60008061219c600884613a85565b905083518111156121ac57600080fd5b929091016020015160c01c929050565b60006121c88383611683565b90506121d48382612baf565b905060006121e2848361218e565b9250905060005b81811015611737576121fb8584612beb565b92508061220781613a9d565b9150506121e9565b600061221c600883613a85565b9290910160209081015160c01c02909101919050565b600061223e838361220f565b9050600061224c848361173f565b9250905060005b81811015611737576122658584612c32565b92508061227181613a9d565b915050612253565b60608351600114801561228d575082516001145b156122f45760408051600180825281830190925260009160208083019080368337019050509050836000815181106122c7576122c7613a2c565b6020026020010151816000815181106122e2576122e2613a2c565b602090810291909101015290506118a2565b83516002141561231057612309848484612c9d565b90506118a2565b60405162461bcd60e51b815260206004820152602e60248201527f756e737570706f72746564206e756d626572206f6620706f696e747320666f7260448201527f20696e746572706f6c6174696f6e0000000000000000000000000000000000006064820152608401610207565b606083518351111561238e579192915b60005b83518110156124505760008186516123a99190613a85565b67ffffffffffffffff8111156123c1576123c1613a42565b6040519080825280602002602001820160405280156123ea578160200160208202803683370190505b50905060005b865181101561242e5784602084026020880101516020830260208a01015109602084830102602084010152808061242690613a9d565b9150506123f0565b5061243a838286612dfe565b925050808061244890613a9d565b915050612391565b509392505050565b83516000908190851061246a57600080fd5b6124b560405180610100016040528060008152602001600081526020016000801916815260200160008152602001600081526020016000815260200160008152602001606081525090565b8587516124c29190613a6e565b8152604080516002808252606082018352909160208301908036833750505060e08201526060840151805161251b919060009061250157612501613a2c565b6020026020010151612514876008612f1f565b8651611dcd565b608082015280516008111561252f57600080fd5b8560208801015160c01c80606083015280602002600801925050816008018151101561255a57600080fd5b81860160208801015160c01c826008019250600060208601518214141561258057600080fd5b5060005b84602001518110156127c65761259e868660000151611965565b60c08301526080808601519083015186516125ba929190612fb0565b60a08301526000806125d58a6125d0878c613a85565b612ff5565b91509150816125ee576000809550955050505050612a49565b60005b6002811015612648576126158b612608888d613a85565b868489608001518d613183565b8560e00151828151811061262b5761262b613a2c565b60209081029190910101528061264081613a9d565b9150506125f1565b506020858a018b01810151908501819052608085015188516126d2919061268590612674836002613b3a565b61267e9190613b26565b8b51613251565b8760e0015160008151811061269c5761269c613a2c565b60200260200101518860e001516001815181106126bb576126bb613a2c565b60200260200101518960c001518d60000151613268565b146126e7576000809550955050505050612a49565b600187602001516126f89190613a6e565b83101561279b5784890181018a0160480151604085810182905289518151602080820192909252808301939093528151808403830181526060909301909152815191012088526127838a61274e60026020613b3a565b604861275a898e613a85565b6127649190613a85565b61276f906008613a85565b6127799190613a85565b6020870151613289565b5091508161279b576000809550955050505050612a49565b60a084015160808501526127af8186613a85565b9450505080806127be90613a9d565b915050612584565b50600184602001516129c9866040015160016127e29190613a85565b604080517ff8f9cbfae6cc78fbefe7cdc3a1793dfcf4f0e8bbd8cec470b6a28a7a5a3e1efd81527ff5ecf1b3e9debc68e1d9cfabc5997135bfb7a7a3938b7b606b5b4b3f2f1f0ffe60208201527ff6e4ed9ff2d6b458eadcdf97bd91692de2d4da8fd2d0ac50c6ae9a8272523616818301527fc8c0b887b0a8a4489c948c7f847c6125746c645c544c444038302820181008ff60608201527ff7cae577eec2a03cf3bad76fb589591debb2dd67e0aa9834bea6925f6a4a2e0e60808201527fe39ed557db96902cd38ed14fad815115c786af479b7e8324736353433727170760a08201527fc976c13bb96e881cb166a933a55e490d9d56952b8d4e801485467d236242260660c08201527f753a6d1b65325d0c552a4d1345224105391a310b29122104190a11030902010060e08201526101008082019092527f0100000000000000000000000000000000000000000000000000000000000000600170010000000000000000000000000000000068010000000000000000640100000000620100006010600460026000198c019081041790810417908104178881041790810417908104179081041790810417017e818283848586878898a8b8c8d8e8f929395969799a9b9d9e9faaeb6bedeeff0281900460ff039091015104600160ff1b909211020190565b6129d39190613a6e565b6129de906002613c92565b6129e89190613a6e565b600182606001516129f99190613a6e565b1115612a0c576000809250925050612a49565b6020810151612a3188612a20896008613a85565b6060850151608086015189516134ce565b14612a43576000809250925050612a49565b60019250505b94509492505050565b606081612a9257505060408051808201909152600181527f3000000000000000000000000000000000000000000000000000000000000000602082015290565b8160005b8115612abc5780612aa681613a9d565b9150612ab59050600a83613c9e565b9150612a96565b60008167ffffffffffffffff811115612ad757612ad7613a42565b6040519080825280601f01601f191660200182016040528015612b01576020820181803683370190505b509050815b8515612ba657612b17600182613a6e565b90506000612b26600a88613c9e565b612b3190600a613b3a565b612b3b9088613a6e565b612b46906030613cb2565b905060008160f81b905080848481518110612b6357612b63613a2c565b60200101907effffffffffffffffffffffffffffffffffffffffffffffffffffffffffffff1916908160001a905350612b9d600a89613c9e565b97505050612b06565b50949350505050565b6000612bbc600883613a85565b90508251811115612bcc57600080fd5b8160208401015160c01c6020028101905082518111156116ab57600080fd5b6000612bf78383612baf565b90506000612c05848361218e565b9250905060005b8181101561173757612c1e8584613516565b925080612c2a81613a9d565b915050612c0c565b6000612c3e8383613581565b9050612c4a838261188a565b9050612c56838261220f565b9050612c62838261358e565b90506000612c70848361173f565b9250905060005b8181101561173757612c89858461358e565b925080612c9581613a9d565b915050612c77565b60608351600214612cf05760405162461bcd60e51b815260206004820152601a60248201527f78206c656e677468206973206e6f7420657175616c20746f20320000000000006044820152606401610207565b8251600214612d415760405162461bcd60e51b815260206004820152601b60248201527f6678206c656e677468206973206e6f7420657175616c20746f203200000000006044820152606401610207565b6000612da28386600081518110612d5a57612d5a613a2c565b602002602001015185612d6d9190613a6e565b87600181518110612d8057612d80613a2c565b6020026020010151612d929190613a85565b612d9c9190613b26565b84613251565b604080516002808252606082018352929350919060208301908036833701905050915082602085015184036040860151088382820990508360208701518209840384816020880151086020850152506040830152509392505050565b6040805160038082526080820190925260609160009190602082018480368337019050509050835185511015612e47578451602082015283516040820152836060820152612e5c565b83516020820152845160408201528460608201525b80600181518110612e6f57612e6f613a2c565b602002602001015167ffffffffffffffff811115612e8f57612e8f613a42565b604051908082528060200260200182016040528015612eb8578160200160208202803683370190505b50915060005b60208083015102811015612eee578381602087010151826020890101510881602085010152602081019050612ebe565b50602080820151025b60206040830151028110156118e3576060820151810160209081015184830182015201612ef7565b60006020821115612f2f57600080fd5b82516040805160208101929092520160408051601f1981840301815291905280516020909101208352612f63826008613b3a565b612f6f90610100613a6e565b612f7a836008613b3a565b612f8690610100613a6e565b6001612f93856008613b3a565b6001901b612fa19190613a6e565b8551911b16901c905092915050565b6000806001815b8651811015612fea5784856020830260208a01015184098408925084868309915080612fe281613a9d565b915050612fb7565b509095945050505050565b6000808351831061300557600080fd5b6040805160808101825260008082526020820181905291810182905260608101919091528385516130369190613a6e565b602082015261304760486008613a85565b6130519083613a85565b9150806020015182111561306457600080fd5b6068858501015160c01c6002811461308157600160005260206000fd5b806020028301925050806020015182111561309b57600080fd5b6130ae856130a98487613a85565b6135bb565b6130b89083613a85565b60208201519092506130cb836008613a85565b11156130d657600080fd5b83820185016020015160c01c600281146130f557600160005260206000fd5b50613101600883613a85565b915060005b60028110156131755760706020820286018701015182526131328661312b8588613a85565b8451613289565b60408401521515606083018190526131525760008093509350505061317c565b60408201516131619084613a85565b92508061316d81613a9d565b915050613106565b5060019250505b9250929050565b6070602084028601870101518461167957600080856131e1576131af8460a00151868660000151612fb0565b84516131bb9190613a6e565b91506131da6131d38560c00151878760000151612fb0565b8551613251565b905061323c565b856001141561323c576132098460a001518686600001516132029190613a6e565b8651612fb0565b84516132159190613a6e565b91506132396131d38560c001518787600001516132329190613a6e565b8751612fb0565b90505b83518181848608099998505050505050505050565b60006118a283613262600285613a6e565b84611dcd565b6000818583848a86038708858a878a89038c08090908979650505050505050565b6000808451841061329957600080fd5b60008486516132a89190613a6e565b905080603811156132b857600080fd5b848601603081015160509091015160c01c6132d4816038613b3a565b6132df906038613a85565b9350828411156132ee57600080fd5b60006132fb886038613a85565b60288a82010151600089815291925060c01c808015613321576001811461332e57613337565b6020600020602052613337565b60206000206000525b505060005b613347600185613a6e565b81101561343357613359816038613b3a565b6133648b6038613a85565b61336e9190613a85565b925061337b836020613a85565b613386906018613a85565b838c01602881015160609091015191935060c090811c91901c8180156133b357600181146133ea5761341d565b8d8501516000528180156133ce57600181146133db576133e4565b60406000206020526133e4565b60406000206000525b5061341d565b8d85015160205281801561340557600181146134125761341b565b604060002060205261341b565b60406000206000525b505b505050808061342b90613a9d565b91505061333c565b5061343f600184613a6e565b61344a906038613b3a565b6134558a6038613a85565b61345f9190613a85565b915061346c826020613a85565b613477906018613a85565b60288b8401015190915060c01c80801561349857600181146134ab576134ba565b828c0151600052604060002099506134ba565b828c0151602052604060002099505b505083881496505050505050935093915050565b6000806001815b86811015613509578485602083028a60208d010101518409840892508486830991508061350181613a9d565b9150506134d5565b5090979650505050505050565b600061352283836116f0565b905061352e8382611683565b905061353a8382612baf565b90506135468382613670565b90506000613554848361218e565b9250905060005b818110156117375761356d8584613670565b92508061357981613a9d565b91505061355b565b60006118a2826020613a85565b6050828201015160009060c01c6135a6816038613b3a565b6135b1603885613a85565b61190a9190613a85565b6000825182106135ca57600080fd5b60008284516135d99190613a6e565b905080603811156136155760405162461bcd60e51b8152600401610207906020808252600490820152636865726560e01b604082015260600190565b6050848401015160c01c61362a816038613b3a565b613635906038613a85565b9250818311156117375760405162461bcd60e51b8152600401610207906020808252600490820152636865726560e01b604082015260600190565b60008251821061367f57600080fd5b81835161368c9190613a6e565b603811156136dc5760405162461bcd60e51b815260206004820152601460248201527f736b69705f6d65726b6c655f70726f6f665f62650000000000000000000000006044820152606401610207565b6050838301015160c01c6136f1816038613b3a565b6136fc603885613a85565b6137069190613a85565b915083518211156137595760405162461bcd60e51b815260206004820152601460248201527f736b69705f6d65726b6c655f70726f6f665f62650000000000000000000000006044820152606401610207565b5092915050565b82805482825590600052602060002090810192821561379b579160200282015b8281111561379b578235825591602001919060010190613780565b506137a7929150613804565b5090565b8280548282559060005260206000209081019282156137f8579160200282015b828111156137f857825180516137e8918491602090910190613819565b50916020019190600101906137cb565b506137a7929150613854565b5b808211156137a75760008155600101613805565b82805482825590600052602060002090810192821561379b579160200282015b8281111561379b578251825591602001919060010190613839565b808211156137a75760006138688282613871565b50600101613854565b508054600082559060005260206000209081019061388f9190613804565b50565b60008083601f8401126138a457600080fd5b50813567ffffffffffffffff8111156138bc57600080fd5b6020830191508360208260051b850101111561317c57600080fd5b600080602083850312156138ea57600080fd5b823567ffffffffffffffff81111561390157600080fd5b61390d85828601613892565b90969095509350505050565b60008060006040848603121561392e57600080fd5b833567ffffffffffffffff81111561394557600080fd5b61395186828701613892565b909790965060209590950135949350505050565b6000806020838503121561397857600080fd5b823567ffffffffffffffff8082111561399057600080fd5b818501915085601f8301126139a457600080fd5b8135818111156139b357600080fd5b8660208285010111156139c557600080fd5b60209290920196919550909350505050565b600080600080600080600080610100898b0312156139f457600080fd5b505086359860208801359850604088013597606081013597506080810135965060a0810135955060c0810135945060e0013592509050565b634e487b7160e01b600052603260045260246000fd5b634e487b7160e01b600052604160045260246000fd5b634e487b7160e01b600052601160045260246000fd5b600082821015613a8057613a80613a58565b500390565b60008219821115613a9857613a98613a58565b500190565b6000600019821415613ab157613ab1613a58565b5060010190565b6000808212827f7fffffffffffffffffffffffffffffffffffffffffffffffffffffffffffffff03841381151615613af257613af2613a58565b82600160ff1b038412811615613b0a57613b0a613a58565b50500190565b634e487b7160e01b600052601260045260246000fd5b600082613b3557613b35613b10565b500690565b6000816000190483118215151615613b5457613b54613a58565b500290565b600060208083528351808285015260005b81811015613b8657858101830151858201604001528201613b6a565b81811115613b98576000604083870101525b50601f01601f1916929092016040019392505050565b600181815b80851115613be9578160001904821115613bcf57613bcf613a58565b80851615613bdc57918102915b93841c9390800290613bb3565b509250929050565b600082613c00575060016116ab565b81613c0d575060006116ab565b8160018114613c235760028114613c2d57613c49565b60019150506116ab565b60ff841115613c3e57613c3e613a58565b50506001821b6116ab565b5060208310610133831016604e8410600b8410161715613c6c575081810a6116ab565b613c768383613bae565b8060001904821115613c8a57613c8a613a58565b029392505050565b60006118a28383613bf1565b600082613cad57613cad613b10565b500490565b600060ff821660ff84168060ff03821115613ccf57613ccf613a58565b01939250505056fea2646970667358221220ec46d28b4404140537e154b649ff1f8e98fdea292c6ad40a5e462cc74ec1388364736f6c634300080c0033",
  "immutableReferences": {},
  "source": "// SPDX-License-Identifier: Apache-2.0.\n//---------------------------------------------------------------------------//\n// Copyright (c) 2022 Mikhail Komarov <nemo@nil.foundation>\n// Copyright (c) 2022 Ilias Khairullin <ilias@nil.foundation>\n//\n// Licensed under the Apache License, Version 2.0 (the \"License\");\n// you may not use this file except in compliance with the License.\n// You may obtain a copy of the License at\n//\n//    http://www.apache.org/licenses/LICENSE-2.0\n//\n// Unless required by applicable law or agreed to in writing, software\n// distributed under the License is distributed on an \"AS IS\" BASIS,\n// WITHOUT WARRANTIES OR CONDITIONS OF ANY KIND, either express or implied.\n// See the License for the specific language governing permissions and\n// limitations under the License.\n//---------------------------------------------------------------------------//\npragma solidity >=0.8.4;\n\nimport '../../types.sol';\nimport '../../cryptography/transcript.sol';\nimport '../proof_map_parser.sol';\nimport '../verifier_unified_addition_component.sol';\n\ncontract TestPlaceholderVerifierUnifiedAddition {\n    types.lpc_params_type m_lpc_params;\n    types.placeholder_common_data m_common_data;\n\n    function set_initial_params(uint256 modulus, uint256 r, uint256 max_degree, uint256 lambda, uint256 m, uint256 rows_amount, uint256 omega, uint256 columns_number) public {\n        m_lpc_params.modulus = modulus;\n        m_lpc_params.lambda = lambda;\n        m_lpc_params.r = r;\n        m_lpc_params.m = m;\n\n        m_lpc_params.fri_params.modulus = modulus;\n        m_lpc_params.fri_params.r = r;\n        m_lpc_params.fri_params.max_degree = max_degree;\n\n        m_common_data.rows_amount = rows_amount;\n        m_common_data.omega = omega;\n        m_common_data.columns_rotations = new int256[][](columns_number);\n    }\n\n    function set_U(uint256[] calldata U) public {\n        m_lpc_params.fri_params.U = U;\n    }\n\n    function set_V(uint256[] calldata V) public {\n        m_lpc_params.fri_params.V = V;\n    }\n\n    function set_D_omegas(uint256[] calldata D_omegas) public {\n        m_lpc_params.fri_params.D_omegas = D_omegas;\n    }\n\n    function set_q(uint256[] calldata q) public {\n        m_lpc_params.fri_params.q = q;\n    }\n\n    function set_column_rotations(int256[] calldata rotations, uint256 i) public {\n        m_common_data.columns_rotations[i] = rotations;\n    }\n\n    function verify(bytes calldata blob) public {\n        (types.placeholder_proof_map memory proof_map, uint256 proof_size) = placeholder_proof_map_parser.parse_be(blob, 0);\n        require(proof_size == blob.length, \"Proof length was detected incorrectly!\");\n        bytes memory init_blob = hex\"\";\n        types.transcript_data memory tr_state;\n        transcript.init_transcript(tr_state, init_blob);\n        types.lpc_params_type memory lpc_params = m_lpc_params;\n        types.placeholder_common_data memory common_data = m_common_data;\n        require(placeholder_verifier_unified_addition_component.parse_verify_proof_be(blob, 0, tr_state, proof_map, lpc_params, common_data), \"Proof is not correct!\");\n    }\n}\n",
  "sourcePath": "/Users/Zerg/Projects/mina_master/share/aux-proof-verify/contracts/placeholder/test/public_api_placeholder_unified_addition.sol",
  "compiler": {
    "name": "solc",
    "version": "0.8.12+commit.f00d7308.Emscripten.clang"
  },
  "schemaVersion": "3.4.6",
  "updatedAt": "2022-04-20T20:26:17.734Z",
  "networkType": "ethereum",
  "devdoc": {
    "kind": "dev",
    "methods": {},
    "version": 1
  },
  "userdoc": {
    "kind": "user",
    "methods": {},
    "version": 1
  }
}