{
  "contractName": "TestPlaceholderVerifierUnifiedAddition",
  "abi": [
    {
      "inputs": [
        {
          "internalType": "bytes",
          "name": "blob",
          "type": "bytes"
        },
        {
          "internalType": "uint256[]",
          "name": "init_params",
          "type": "uint256[]"
        },
        {
          "internalType": "int256[][]",
          "name": "columns_rotations",
          "type": "int256[][]"
        }
      ],
      "name": "verify",
      "outputs": [],
      "stateMutability": "nonpayable",
      "type": "function"
    }
  ],
  "bytecode": "0x608060405234801561001057600080fd5b506154f8806100206000396000f3fe608060405234801561001057600080fd5b506004361061002b5760003560e01c8063c5a5a98814610030575b600080fd5b61004361003e3660046150c8565b610045565b005b61004d614eda565b6100598787600061053c565b6020830181905290825286146100dc5760405162461bcd60e51b815260206004820152602660248201527f50726f6f66206c656e6774682077617320646574656374656420696e636f727260448201527f6563746c7921000000000000000000000000000000000000000000000000000060648201526084015b60405180910390fd5b60408082015181516020810190925260009091527fc5d2460186f7233c927e7db2dcc703c0e500b653ca82273b7bfad8045d85a47090526000858582610121816151a3565b9350818110610132576101326151be565b60808501516020909102929092013590915250858582610151816151a3565b9350818110610162576101626151be565b905060200201358260800151602001818152505085858280610183906151a3565b9350818110610194576101946151be565b9050602002013582608001516040018181525050858582806101b5906151a3565b93508181106101c6576101c66151be565b9050602002013582608001516060018181525050858582806101e7906151a3565b93508181106101f8576101f86151be565b905060200201358260800151608001818152505085858280610219906151a3565b935081811061022a5761022a6151be565b60a08501516020909102929092013590915250858582610249816151a3565b935081811061025a5761025a6151be565b905060200201358260a00151602001818152505083839061027b919061523f565b60a083015160400152858582610290816151a3565b93508181106102a1576102a16151be565b9050602002013567ffffffffffffffff8111156102c0576102c06151d4565b6040519080825280602002602001820160405280156102e9578160200160208202803683370190505b50608083015160a0015260005b826080015160a001515181101561036257868683610313816151a3565b9450818110610324576103246151be565b90506020020135836080015160a001518281518110610345576103456151be565b60209081029190910101528061035a816151a3565b9150506102f6565b5085858261036f816151a3565b9350818110610380576103806151be565b9050602002013567ffffffffffffffff81111561039f5761039f6151d4565b6040519080825280602002602001820160405280156103c8578160200160208202803683370190505b50608083015160c0015260005b826080015160c0015151811015610441578686836103f2816151a3565b9450818110610403576104036151be565b90506020020135836080015160c001518281518110610424576104246151be565b602090810291909101015280610439816151a3565b9150506103d5565b506080808301805151606080860180519290925282518401518251602090810191909152835181015183516040908101919091528351600290840152845160a090810151855188015190940193909352845160c0015184518701518701528451518451870151528451810151845187015182015284518201518451909601519091019490945292850151855191519251938601516104e6948d948d9492909190610732565b6105325760405162461bcd60e51b815260206004820152601560248201527f50726f6f66206973206e6f7420636f727265637421000000000000000000000060448201526064016100d3565b5050505050505050565b6105c360405180610220016040528060008152602001600081526020016000815260200160008152602001600081526020016000815260200160008152602001600081526020016000815260200160008152602001600081526020016000815260200160008152602001600081526020016000815260200160008152602001600081525090565b81815260006105d385858561106d565b602083018190526105e7908690869061106d565b604083018190526105fb908690869061106d565b6060830181905261060f908690869061106d565b60808301819052610623908690869061106d565b60a08301819052610637908690869061109b565b60c0830181905261064b90869086906110cf565b60e0830181905261065f90869086906110dc565b6101008301819052610674908690869061113c565b6101208301819052610689908690869061113c565b610140830181905261069e908690869061113c565b61016083018190526106b3908690869061113c565b61018083018190526106c8908690869061113c565b6101a083018190526106dd908690869061113c565b6101c083018190526106f2908690869061113c565b6101e08301819052610707908690869061113c565b6102008301819052839061071e908790879061113c565b610728919061530a565b9050935093915050565b6000610818604051806103c0016040528060008152602001600081526020016000815260200160608152602001600081526020016060815260200160008152602001600081526020016060815260200160608152602001600081526020016000815260200160008152602001600081526020016000815260200160008152602001600081526020016000815260200160008152602001600081526020016000815260200160008152602001600081526020016060815260200160008152602001600081526020016000815260200160008152602001600081526020016000151581525090565b610832878a8a61082d8d8d8c60000151611178565b61118d565b610841898989898888876112c1565b81606001819052506108a660405180610160016040528060008152602001600081526020016000815260200160008152602001606081526020016060815260200160008152602001600081526020016000815260200160008152602001600081525090565b8551815285516108b7908990611791565b602082015260e08088015160c08301526101e08801519082015260408401516108e5908b908b9084906117d8565b6080830152604080516009808252610140820190925290602082016101208036833750505060a08301819052865161091e918a9161213d565b61092d8a8a8960a001516121ba565b6020840152825260005b825181101561097d57610957898c8c6008876020015161082d9190615321565b6109668b8b85602001516121ce565b602084015280610975816151a3565b915050610937565b5061098c888760000151611791565b60c08381018290528801518b0135146109aa57600092505050611062565b846060015167ffffffffffffffff8111156109c7576109c76151d4565b6040519080825280602002602001820160405280156109fa57816020015b60608152602001906001900390816109e55790505b506102e083015260005b8560600151811015610b9f5784604001518181518110610a2657610a266151be565b60200260200101515167ffffffffffffffff811115610a4757610a476151d4565b604051908082528060200260200182016040528015610a70578160200160208202803683370190505b50836102e001518281518110610a8857610a886151be565b602002602001018190525060005b85604001518281518110610aac57610aac6151be565b602002602001015151811015610b8c5787516040870151805182919085908110610ad857610ad86151be565b60200260200101518381518110610af157610af16151be565b6020026020010151610b039190615339565b610b0d9190615391565b60e0850181905260208701518951610b2592906121e6565b60e08501819052885160c08601519091900960e085018190526102e0850151805184908110610b5657610b566151be565b60200260200101518281518110610b6f57610b6f6151be565b602090810291909101015280610b84816151a3565b915050610a96565b5080610b97816151a3565b915050610a04565b50610bb78a8a8960e00151856102e001518c8a61222a565b15156103a08301819052610bd057600092505050611062565b6040805160028082526060820183529091602083019080368337505050610100830181905260c08301518151909190600090610c0e57610c0e6151be565b6020026020010181815250508551602085015160c08401510960406101008401510152610c448a8a8961010001518b8a87612913565b610c5357600092505050611062565b6040805160018082528183019092529060208083019080368337505050610100830181905260c08301518151909190600090610c9157610c916151be565b602002602001018181525050610cb08a8a8961012001518b8a87612913565b610cbf57600092505050611062565b610cd28a8a8961016001518b8a87612913565b610ce157600092505050611062565b610cf48a8a8961018001518b8a87612913565b610d0357600092505050611062565b610d168a8a896101a001518b8a87612913565b610d2557600092505050611062565b610d388a8a896101c001518b8a87612913565b610d4757600092505050611062565b610d5a8a8a896101e001518b8a87612913565b610d6957600092505050611062565b610d7c8a8a8961020001518b8a87612913565b610d8b57600092505050611062565b604080516009808252610140820190925290602082016101208036833750505061012083015260608201518051600090610dc757610dc76151be565b6020026020010151826101200151600081518110610de757610de76151be565b6020026020010181815250508160600151600181518110610e0a57610e0a6151be565b6020026020010151826101200151600181518110610e2a57610e2a6151be565b6020026020010181815250508160600151600281518110610e4d57610e4d6151be565b6020026020010151826101200151600281518110610e6d57610e6d6151be565b602090810291909101015260035b6008811015610eba5760008361012001518281518110610e9d57610e9d6151be565b602090810291909101015280610eb2816151a3565b915050610e7b565b508160800151826101200151600881518110610ed857610ed86151be565b6020908102919091010152600061014083018190525b6009811015610f38578651875182602002602061012087015101015183602002602060a0880151010151096101408501510861014084015280610f30816151a3565b915050610eee565b506000610160830152610120870151610f54908b908b906121ba565b6020840152825260005b825181101561100157610f788b8b85602001516000612997565b836040018181525050610fb08360c00151828960800151604001516001610f9f9190615321565b610fa991906153b3565b89516121e6565b60e08401819052875160408501519091900960408401528651604084015161016085015108610160840152610fea8b8b85602001516129c4565b602084015280610ff9816151a3565b915050610f5e565b5060c0820151845187516110169291906121e6565b61018083018190528651906000198201900861018083015285516101608301516101808401510961018083018190526101408301511461105b57600092505050611062565b6001925050505b979650505050505050565b600061107a600883615321565b611085906020615321565b90508281111561109457600080fd5b9392505050565b60006110a8600883615321565b9050828111156110b757600080fd5b60288483013560c01c02018281111561109457600080fd5b6000611085826020615321565b60006110e984848461106d565b90506110f6848483612a1b565b90506000611105858584612a68565b9250905060005b818110156111335761111f868685612a93565b92508061112b816151a3565b91505061110c565b50509392505050565b60008061114a858585612a68565b9250905060005b8181101561113357611164868685612add565b925080611170816151a3565b915050611151565b6000611185600883615321565b949350505050565b8181106112025760405162461bcd60e51b815260206004820152603560248201527f7570646174655f7472616e7363726970745f6233325f62795f6f66667365743a60448201527f206f6666736574203c20626c6f622e6c656e677468000000000000000000000060648201526084016100d3565b61120c818361530a565b602011156112825760405162461bcd60e51b815260206004820152603b60248201527f7570646174655f7472616e7363726970745f6233325f62795f6f66667365743a60448201527f203332203c3d20626c6f622e6c656e677468202d206f6666736574000000000060648201526084016100d3565b828101356112ba8582815160408051602080820193909352808201939093528051808403820181526060909301905281519101209052565b5050505050565b60606112d1868560000151611791565b6101a083015283516112e4908790611791565b826101c00181815250506113058689896008896020015161082d9190615321565b61016085015188013560c01c825261018085015188013560c01c8251146113945760405162461bcd60e51b815260206004820152603f60248201527f69645f7065726d75746174696f6e206c656e677468206973206e6f742065717560448201527f616c20746f207369676d615f7065726d75746174696f6e206c656e677468210060648201526084016100d3565b6113a388888760e00151612b34565b61030083015260016101e083018190526102008301526101608501516113cc9089908990611178565b6103208301526101808501516113e59089908990611178565b61034083015260006103608301525b8151610360830151101561163a5760006103808301525b826040015182610360015181518110611426576114266151be565b60200260200101515182610380015110156114a957826040015182610360015181518110611456576114566151be565b602002602001015182610380015181518110611474576114746151be565b6020026020010151600014156114905761038082015160408301525b61038082018051906114a1826151a3565b90525061140b565b6114bb88888461032001516000612997565b6102a08301526103208201516114d490899089906129c4565b6103208301526103408201516114ef90899089906000612997565b6102c083015261034082015161150890899089906129c4565b610340830152610300820151610360830151101561154957611544848361153f8b8b8a60e001518861036001518960400151612b50565b612b69565b611621565b6101a085015188013560c01c8261030001516115659190615321565b82610360015110156115b9576115978888876101a00151856103000151866103600151611592919061530a565b612bbf565b826020018181525050611544848361153f8b8b87602001518860400151612997565b6101a085015188013560c01c8261030001518361036001516115db919061530a565b6115e5919061530a565b602083018190526101c08601516115ff918a918a91612bbf565b826020018181525050611621848361153f8b8b87602001518860400151612997565b6103608201805190611632826151a3565b9052506113f4565b611658888860088861010001516116519190615321565b6000612997565b61022083015261010085015161167f908990899061167890600890615321565b6001612997565b61024083015261020085015161169f908990899061165190600890615321565b826102800181815250506116ca88886116518b8b60088b61020001516116c59190615321565b6129c4565b61026083015260408051600380825260808201909252906020820160608036833750505060c0868101518a01359084018190528551919250600181146117165760006020840152611728565b81610220850151830360010860208401525b508081826101e0860151610220870151098303836102008701516102408801510908828361026087015185036102808801518603086001080960408301526102208301518190819080820390829080090861028085015109606083015250979650505050505050565b81516040516000916117a99160200190815260200190565b60408051601f1981840301815291905280516020909101208084526117cf908390615391565b90505b92915050565b60408051600b8082526101808201909252600091816020015b60608152602001906001900390816117f1575050608084015260005b600b81101561192957828181518110611828576118286151be565b60200260200101515167ffffffffffffffff811115611849576118496151d4565b604051908082528060200260200182016040528015611872578160200160208202803683370190505b5084608001518281518110611889576118896151be565b602002602001018190525060005b8382815181106118a9576118a96151be565b602002602001015151811015611916576118ca87878760c001518585612b50565b856080015183815181106118e0576118e06151be565b602002602001015182815181106118f9576118f96151be565b60209081029190910101528061190e816151a3565b915050611897565b5080611921816151a3565b91505061180d565b50604080516001808252818301909252906020808301908036833750505060a084015260e083015161195d90600890615321565b61014084015260005b60018110156119cb5761198186868661014001516000612997565b8460a001518281518110611997576119976151be565b6020026020010181815250506119b386868661014001516129c4565b610140850152806119c3816151a3565b915050611966565b50825160006060850181905260408501526080840151610100810151602090810151918101510151600191839182918291096f224698fc094cf91b992d30ed00000000600160fe1b010960408701510860408601526080850151610100015160200151829081906080880151606001516020015109604087015108604086015281828260408801510960608701510860608601528160208601518209600060408701526080860151610160810151602090810151918101510151919250839182918291096f224698fc094cf91b992d30ed00000000600160fe1b0109604087015108604086015260808501516101600151602001518290819060808801516060015160200151096040870151086040860152816f224698fc094cf91b992d30ed00000000600160fe1b01604087015108604086018190526080860151610100015160200151839108604086015281828260408801510960608701510860608601528160208601518209600060408701526080860151610100015160200151909150829081908190819060808a01516040015160200151096080890151610120015160200151096002096040870151086040860152608085015161010081015160209081015191810151015183918291829182910960808901516020908101510151097f40000000000000000000000000000000224698fc094cf91b992d30ecfffffffe096040870151086040860152608085015161012081015160209081015191810151015183918291829190096f224698fc094cf91b992d30ed00000000600160fe1b010960408701510860408601526080850151610120015160200151829081906080880151606001516020015109604087015108604086810182905260808701510151602001518391086040860152608080860151015160200151829081906f224698fc094cf91b992d30ed00000000600160fe1b010960408701510860408601526080850151610120810151602090810151918101510151839182918291900960808801516101000151602001510960408701510860408601526080850151610120015160200151829081908190819060808a01516060015160200151096080890151610100015160200151096f224698fc094cf91b992d30ed00000000600160fe1b010960408701510860408681019190915260808601510151602001518290819081906080890151610100015160200151096f224698fc094cf91b992d30ed00000000600160fe1b0109604087015108604086015260808086015101516020015182908190608088015161010001516020015109604087015108604086015281828260408801510960608701510860608601528160208601518209600060408701526080860151610120015160200151909150829081908009604087015108604086015260808501516060015160200151829081906f224698fc094cf91b992d30ed00000000600160fe1b0109604087015108604086015260808501516020908101510151829081906f224698fc094cf91b992d30ed00000000600160fe1b01096040870151086040860152608085015160a0015160200151829081906f224698fc094cf91b992d30ed00000000600160fe1b010960408701510860408601528182826040880151096060870151086060860152816020860151820960006040870152608086015161012001516020015190915082908190608088015160a0015160200151096040870151086040860152608085015161012081015160209081015191810151015183918291829190096f224698fc094cf91b992d30ed00000000600160fe1b01096040870151086040868101829052608087015101516020015183910860408601819052608086015160c001516020015183910860408601528182826040880151096060870151086060860152816020860151820960006040870152608086015160e00151602001519091508290819060808801516040015160200151096040870151086040860152608085015161010001516020015182908190819060808901516040015160200151096f224698fc094cf91b992d30ed00000000600160fe1b01096040870151086040860152608085015160e0015160200151829081908190608089810151015160200151096f224698fc094cf91b992d30ed00000000600160fe1b010960408701510860408601526080850151610100015160200151829081906080888101510151602001510960408701510860408601528182826040880151096060870151086060860152816020860151820960006040870152608086015161014001516020015190915082908190819060808901516040015160200151096f224698fc094cf91b992d30ed00000000600160fe1b01096040870151086040860152608085015161014001516020015182908190608088810151015160200151096040870151086040860152608085015160e0015160200151829081906f224698fc094cf91b992d30ed00000000600160fe1b010960408701510860408601528182826040880151096060870151086060860181905260a0860151602001518392509009606085018190528190830891505060006060840152949350505050565b8151156121b557825160005b83518110156121b15760408051602081018490520160408051601f19818403018152919052805160209091012091506121828383615391565b848281518110612194576121946151be565b6020908102919091010152806121a9816151a3565b915050612149565b5083525b505050565b8281013560c01c6000610728600884615321565b60006121db600883615321565b611185906020615321565b600060405160208152602080820152602060408201528460608201528360808201528260a082015260208160c08360055afa61222157600080fd5b51949350505050565b6000612237878787612b34565b8260600151146122af5760405162461bcd60e51b815260206004820152602760248201527f5a2061727261792073697a65206973206e6f7420657175616c20746f206c656160448201527f665f73697a65210000000000000000000000000000000000000000000000000060648201526084016100d3565b83518260600151146123295760405162461bcd60e51b815260206004820152603a60248201527f4172726179206f66206576616c756174696f6e20706f696e74732073697a652060448201527f6973206e6f7420657175616c20746f206c6561665f73697a652100000000000060648201526084016100d3565b612334878787612c05565b8260800151146123ac5760405162461bcd60e51b815260206004820152602960248201527f4672692070726f6f6673206e756d626572206973206e6f7420657175616c207460448201527f6f206c616d62646121000000000000000000000000000000000000000000000060648201526084016100d3565b604080518082019091526060815260006020820152826060015167ffffffffffffffff8111156123de576123de6151d4565b60405190808252806020026020018201604052801561241157816020015b60608152602001906001900390816123fc5790505b5060e0840152606083015167ffffffffffffffff811115612434576124346151d4565b60405190808252806020026020018201604052801561246757816020015b60608152602001906001900390816124525790505b50815260005b83606001518110156125845785818151811061248b5761248b6151be565b60200260200101515167ffffffffffffffff8111156124ac576124ac6151d4565b6040519080825280602002602001820160405280156124d5578160200160208202803683370190505b5082518051839081106124ea576124ea6151be565b602002602001018190525060005b86828151811061250a5761250a6151be565b602002602001015151811015612571576125278a8a8a8585612b50565b835180518490811061253b5761253b6151be565b60200260200101518281518110612554576125546151be565b602090810291909101015280612569816151a3565b9150506124f8565b508061257c816151a3565b91505061246d565b5060005b836060015181101561260d576125d98682815181106125a9576125a96151be565b6020026020010151836000015183815181106125c7576125c76151be565b60200260200101518660000151612c20565b8460e0015182815181106125ef576125ef6151be565b60200260200101819052508080612605906151a3565b915050612588565b50826060015167ffffffffffffffff81111561262b5761262b6151d4565b60405190808252806020026020018201604052801561265e57816020015b60608152602001906001900390816126495790505b5061010084015260408051600280825260608201835290916020830190803683370190505081518051600090612696576126966151be565b6020026020010181905250600181600001516000815181106126ba576126ba6151be565b60200260200101516001815181106126d4576126d46151be565b60200260200101818152505060005b83606001518110156128a1576040805160018082528183019092529060208083019080368337019050508461010001518281518110612724576127246151be565b602002602001018190525060018461010001518281518110612748576127486151be565b6020026020010151600081518110612762576127626151be565b60200260200101818152505060005b868281518110612783576127836151be565b60200260200101515181101561288e578682815181106127a5576127a56151be565b602002602001015181815181106127be576127be6151be565b602002602001015185600001516127d5919061530a565b835180516000906127e8576127e86151be565b6020026020010151600081518110612802576128026151be565b6020026020010181815250506128598561010001518381518110612828576128286151be565b60200260200101518460000151600081518110612847576128476151be565b60200260200101518760000151612d25565b8561010001518381518110612870576128706151be565b60200260200101819052508080612886906151a3565b915050612771565b5080612899816151a3565b9150506126e3565b506128ad888888612dff565b955060005b8360800151811015612902576128cb8989898888612e26565b1515602083018190526128e357600092505050612909565b6128ee89898961359b565b9650806128fa816151a3565b9150506128b2565b5060019150505b9695505050505050565b60006129208787876121ba565b6020840152825260005b82518110156129895761294a8888856020015186610100015189896135e5565b5015156103a08401819052612963576000915050612909565b612972888885602001516129c4565b602084015280612981816151a3565b91505061292a565b506001979650505050505050565b60006129bb85856129a9866028615321565b85602002019190910160080135919050565b95945050505050565b60006129d18484846121ce565b90506129de8484836138af565b905060006129ed8585846121ba565b9250905060005b8181101561113357612a078686856138ce565b925080612a13816151a3565b9150506129f4565b6000612a28600883615321565b905082811115612a3757600080fd5b8382013560c01c60005b8181101561113357612a54868685613918565b925080612a60816151a3565b915050612a41565b600080612a76600884615321565b905083811115612a8557600080fd5b939091013560c01c93915050565b6000612aa0848484612a1b565b90506000612aaf858584612a68565b9250905060005b8181101561113357612ac986868561394c565b925080612ad5816151a3565b915050612ab6565b6000612aea84848461106d565b9050612af7848483613918565b90506000612b06858584612a68565b9250905060005b8181101561113357612b208686856139bd565b925080612b2c816151a3565b915050612b0d565b600080612b428585856121ce565b90508481013560c01c6129bb565b60006129098686612b62602888615321565b8686613a07565b82518081826101c0860151846102a08801516101a0890151090884086101e0850151096101e08401528081826101c0860151846102c08801516101a0890151090884086102008501510961020084015250505050565b600080612bcd8686866121ba565b9250905060005b83811015612bfb57612be78787856129c4565b925080612bf3816151a3565b915050612bd4565b5050949350505050565b600080612c138585856121ce565b9050612b42858583613a59565b606083516001148015612c34575082516001145b15612c9b576040805160018082528183019092526000916020808301908036833701905050905083600081518110612c6e57612c6e6151be565b602002602001015181600081518110612c8957612c896151be565b60209081029190910101529050611094565b835160021415612cb757612cb0848484613a99565b9050611094565b60405162461bcd60e51b815260206004820152602e60248201527f756e737570706f72746564206e756d626572206f6620706f696e747320666f7260448201527f20696e746572706f6c6174696f6e00000000000000000000000000000000000060648201526084016100d3565b6060835183511115612d35579192915b60005b8351811015612df7576000818651612d509190615321565b67ffffffffffffffff811115612d6857612d686151d4565b604051908082528060200260200182016040528015612d91578160200160208202803683370190505b50905060005b8651811015612dd55784602084026020880101516020830260208a010151096020848301026020840101528080612dcd906151a3565b915050612d97565b50612de1838286613bfa565b9250508080612def906151a3565b915050612d38565b509392505050565b6000612e0c8484846121ce565b9050612e19848483613a59565b9050611185848483611178565b6000612e33868686613d1b565b826020015114612eab5760405162461bcd60e51b815260206004820152602d60248201527f526f756e642070726f6f6673206e756d626572206973206e6f7420657175616c60448201527f20746f20706172616d732e72210000000000000000000000000000000000000060648201526084016100d3565b612f18604051806101a001604052806000815260200160008152602001600081526020016000815260200160008152602001600081526020016060815260200160608152602001600081526020016000815260200160008152602001600081526020016000151581525090565b604080516002808252606082018352909160208301908036833750505060c082015260a08301518051612f6f9190600090612f5557612f556151be565b6020026020010151612f68866008613d36565b85516121e6565b6060820152612f7f878787613dc7565b6101008201526060830151612f959060206153b3565b67ffffffffffffffff811115612fad57612fad6151d4565b6040519080825280601f01601f191660200182016040528015612fd7576020820181803683370190505b5060e082015260005b836020015181101561323f57612ffa858560000151611791565b60a083015260c084015160608301518551613016929190613dd4565b608083015261010082015161303090899089908786613e19565b15156101808301819052613049576000925050506129bb565b6130598888846101000151614090565b61012083015260005b846060015181101561318a5760005b60028110156130bc576130898a8a868685878c6140aa565b8460c00151828151811061309f5761309f6151be565b6020908102919091010152806130b4816151a3565b915050613071565b50610100830151602082020189016008013580845260e0840151602083810290910101528251606084015186516131519190613104906130fd9083906141f4565b8951614202565b8660c0015160008151811061311b5761311b6151be565b60200260200101518760c0015160018151811061313a5761313a6151be565b60200260200101518860a001518b60000151614219565b1461316257600093505050506129bb565b61317289898561012001516138af565b61012084015280613182816151a3565b915050613062565b506001846020015161319c919061530a565b811015613223576131bd88886131b88b8b87610100015161423a565b6142ab565b602083018190526131d39086908a908a9061118d565b6131f288886131e88b8b8761010001516142b8565b8560e001516142df565b501515610180830181905261320c576000925050506129bb565b61321c888884610100015161423a565b6101008301525b6080820151606083015280613237816151a3565b915050612fe0565b508487013560c01c8360600151146132bf5760405162461bcd60e51b815260206004820152603760248201527f46696e616c20706f6c792061727261792073697a65206973206e6f742065717560448201527f616c20746f20706172616d732e6c6561665f73697a652100000000000000000060648201526084016100d3565b6132ca600886615321565b604082015260005b836060015181101561298957600184602001516134e0866040015160016132f99190615321565b604080517ff8f9cbfae6cc78fbefe7cdc3a1793dfcf4f0e8bbd8cec470b6a28a7a5a3e1efd81527ff5ecf1b3e9debc68e1d9cfabc5997135bfb7a7a3938b7b606b5b4b3f2f1f0ffe60208201527ff6e4ed9ff2d6b458eadcdf97bd91692de2d4da8fd2d0ac50c6ae9a8272523616818301527fc8c0b887b0a8a4489c948c7f847c6125746c645c544c444038302820181008ff60608201527ff7cae577eec2a03cf3bad76fb589591debb2dd67e0aa9834bea6925f6a4a2e0e60808201527fe39ed557db96902cd38ed14fad815115c786af479b7e8324736353433727170760a08201527fc976c13bb96e881cb166a933a55e490d9d56952b8d4e801485467d236242260660c08201527f753a6d1b65325d0c552a4d1345224105391a310b29122104190a11030902010060e08201526101008082019092527f0100000000000000000000000000000000000000000000000000000000000000600170010000000000000000000000000000000068010000000000000000640100000000620100006010600460026000198c019081041790810417908104178881041790810417908104179081041790810417017e818283848586878898a8b8c8d8e8f929395969799a9b9d9e9faaeb6bedeeff0281900460ff039091015104600160ff1b909211020190565b6134ea919061530a565b6134f59060026154b6565b6134ff919061530a565b6040830151613516906001908b013560c01c61530a565b1115613527576000925050506129bb565b610100820151602082020188016008013561356589896008866040015161354e9190615321565b60408701518d013560c01c60608801518a51614302565b14613575576000925050506129bb565b613584888884604001516138af565b604083015280613593816151a3565b9150506132d2565b60006135a8848484613a59565b905060006135b78585846121ba565b9250905060005b81811015611133576135d186868561423a565b9250806135dd816151a3565b9150506135be565b6000808686106135f457600080fd5b6000613600878961530a565b905061360e60286008615321565b91508082111561361d57600080fd5b6040805180820190915260008152606060208201528988016028013560c01c808252602002929092019181613653846008615321565b111561365e57600080fd5b8288018a013560c01c6020860151811461367757600080fd5b5080516008939093019267ffffffffffffffff811115613699576136996151d4565b6040519080825280602002602001820160405280156136c2578160200160208202803683370190505b506020808301829052016030890160005b83516020028110156136f3578c82013583820152602091820191016136d3565b5050506137098782602001518760000151612c20565b608086015160a00152604080516001808252818301909252906020808301908036833701905050856080015160c001819052506001856080015160c00151600081518110613759576137596151be565b60209081029190910101526040805160028082526060820190925260009181602001602082028036833701905050905060018160018151811061379e5761379e6151be565b60200260200101818152505060005b8851811015613830578881815181106137c8576137c86151be565b602002602001015187600001516137df919061530a565b826000815181106137f2576137f26151be565b602002602001018181525050613815876080015160c00151838960000151612d25565b608088015160c0015280613828816151a3565b9150506137ad565b5060005b866020015181101561389b5760008061385f8e8e898f6138549190615321565b8d8d60800151614348565b915091508161387a57600080975097505050505050506138a4565b6138848188615321565b965050508080613893906151a3565b915050613834565b50600194505050505b965096945050505050565b60006138bc600883615321565b919093013560c01c6020020192915050565b60006138db8484846138af565b905060006138ea8585846121ba565b9250905060005b818110156111335761390486868561474c565b925080613910816151a3565b9150506138f1565b6000613925600883615321565b90508281111561393457600080fd5b60208483013560c01c02018281111561109457600080fd5b6000613959848484613918565b905061396684848361106d565b9050613973848483612a1b565b90506139808484836147bd565b9050600061398f858584612a68565b9250905060005b81811015611133576139a98686856147bd565b9250806139b5816151a3565b915050613996565b60006139ca848484613918565b905060006139d9858584612a68565b9250905060005b81811015611133576139f3868685614836565b9250806139ff816151a3565b9150506139e0565b6000613a14868686611178565b93508215613a485760005b83811015613a4657613a328787876138af565b945080613a3e816151a3565b915050613a1f565b505b600860208302850187010135612909565b6000613a66600883615321565b90508382013560c01c60005b8181101561113357613a858686856138af565b925080613a91816151a3565b915050613a72565b60608351600214613aec5760405162461bcd60e51b815260206004820152601a60248201527f78206c656e677468206973206e6f7420657175616c20746f203200000000000060448201526064016100d3565b8251600214613b3d5760405162461bcd60e51b815260206004820152601b60248201527f6678206c656e677468206973206e6f7420657175616c20746f2032000000000060448201526064016100d3565b6000613b9e8386600081518110613b5657613b566151be565b602002602001015185613b69919061530a565b87600181518110613b7c57613b7c6151be565b6020026020010151613b8e9190615321565b613b989190615391565b84614202565b604080516002808252606082018352929350919060208301908036833701905050915082602085015184036040860151088382820990508360208701518209840384816020880151086020850152506040830152509392505050565b6040805160038082526080820190925260609160009190602082018480368337019050509050835185511015613c43578451602082015283516040820152836060820152613c58565b83516020820152845160408201528460608201525b80600181518110613c6b57613c6b6151be565b602002602001015167ffffffffffffffff811115613c8b57613c8b6151d4565b604051908082528060200260200182016040528015613cb4578160200160208202803683370190505b50915060005b60208083015102811015613cea578381602087010151826020890101510881602085010152602081019050613cba565b50602080820151025b6020604083015102811015611133576060820151810160209081015184830182015201613cf3565b6000613d28848484613a59565b91508382013560c01c611185565b60006020821115613d4657600080fd5b82516040805160208101929092520160408051601f1981840301815291905280516020909101208352613d7a8260086153b3565b613d869061010061530a565b613d918360086153b3565b613d9d9061010061530a565b6001613daa8560086153b3565b6001901b613db8919061530a565b8551911b16901c905092915050565b6000612e19848484613a59565b6000806001815b8651811015613e0e5784856020830260208a01015184098408925084868309915080613e06816151a3565b915050613ddb565b509095945050505050565b6000613e268686866148a7565b836060015114613e9e5760405162461bcd60e51b815260206004820152603460248201527f526f756e642070726f6f6620792073697a65206973206e6f7420657175616c2060448201527f746f20706172616d732e6c6561665f73697a652100000000000000000000000060648201526084016100d3565b613ea98686866148c2565b600214613f1e5760405162461bcd60e51b815260206004820152602560248201527f526f756e642070726f6f6620702073697a65206973206e6f7420657175616c2060448201527f746f206d2100000000000000000000000000000000000000000000000000000060648201526084016100d3565b613f298686866148f7565b61014083015260005b600281101561408357613f46878787614090565b61012084015260005b846060015181101561402c5761012084015188013560c01c600214613fdc5760405162461bcd60e51b815260206004820152602860248201527f795b706f6c796e6f6d5f696e6465785d2073697a65206973206e6f742065717560448201527f616c20746f206d2100000000000000000000000000000000000000000000000060648201526084016100d3565b6101208401516020830201880160080135610160850181905260e08501516020838102909101015261401488888661012001516138af565b61012085015280614024816151a3565b915050613f4f565b5061404287878561014001518660e001516142df565b501515610180840181905261405b5760009150506129bb565b61406b8787856101400151614927565b6101408401528061407b816151a3565b915050613f32565b5060019695505050505050565b600061409d8484846138af565b9050612e198484836121ce565b6101208501516020840201870160080135846110625760008085614148576140f88460e0015186815181106140e1576140e16151be565b602002602001015189606001518660000151613dd4565b8451614104919061530a565b915061414161413a8561010001518781518110614123576141236151be565b60200260200101518a606001518760000151613dd4565b8551614202565b90506141de565b85600114156141de5761418d8460e00151868151811061416a5761416a6151be565b602002602001015189606001518660000151614186919061530a565b8651613dd4565b8451614199919061530a565b91506141db61413a85610100015187815181106141b8576141b86151be565b60200260200101518a6060015187600001516141d4919061530a565b8751613dd4565b90505b83518181848608099a9950505050505050505050565b600081836002099392505050565b60006117cf8361421360028561530a565b846121e6565b6000818583848a86038708858a878a89038c08090908979650505050505050565b60006142478484846138af565b90506142548484836121ce565b9050614261848483613a59565b905061426e848483614927565b9050600061427d8585846121ba565b9250905060005b8181101561113357614297868685614927565b9250806142a3816151a3565b915050614284565b6000612e198484846138af565b60006142c58484846138af565b90506142d28484836121ce565b9050611185848483613a59565b6000806142f5868686868051906020012061494c565b9097909650945050505050565b6000806001815b8681101561433a578485602083028a8d01013584098408925084868309915080614332816151a3565b915050614309565b509098975050505050505050565b60008085851061435757600080fd5b6143a260405180610100016040528060008152602001600081526020016000801916815260200160008152602001600081526020016000815260200160008152602001606081525090565b6143ac868861530a565b8152604080516002808252606082018352909160208301908036833750505060e08201526060840151805161440591906000906143eb576143eb6151be565b60200260200101516143fe876008613d36565b86516121e6565b608082015280516008111561441957600080fd5b8588013560c01c80606083015280602002600801925050816008018151101561444157600080fd5b60208401516008830192870189013560c01c90811461445f57600080fd5b5060005b84602001518110156146a55761447d868660000151611791565b60c0830152608080860151908301518651614499929190613dd4565b60a08301526000806144b58b8b6144b0888d615321565b614b31565b91509150816144ce576000809550955050505050614742565b60005b6002811015614529576144f68c8c6144e9898e615321565b87858a608001518e614ccf565b8560e00151828151811061450c5761450c6151be565b602090810291909101015280614521816151a3565b9150506144d1565b508885018b013560208501819052608085015188516145b09190614563906145528360026153b3565b61455c9190615391565b8b51614202565b8760e0015160008151811061457a5761457a6151be565b60200260200101518860e00151600181518110614599576145996151be565b60200260200101518960c001518d60000151614219565b146145c5576000809550955050505050614742565b600187602001516145d6919061530a565b83101561467a5788850181018b0160280135604085810182905289518151602080820192909252808301939093528151808403830181526060909301909152815191012088526146628b8b61462d600260206153b3565b60486146398a8f615321565b6146439190615321565b61464e906008615321565b6146589190615321565b6020880151614d69565b5091508161467a576000809550955050505050614742565b60a0840151608085015261468e8186615321565b94505050808061469d906151a3565b915050614463565b50600184602001516146c1866040015160016132f99190615321565b6146cb919061530a565b6146d69060026154b6565b6146e0919061530a565b600182606001516146f1919061530a565b1115614704576000809250925050614742565b602081015161472a89896147198a6008615321565b606086015160808701518a51614302565b1461473c576000809250925050614742565b60019250505b9550959350505050565b6000614759848484614ecd565b90506147668484836121ce565b90506147738484836138af565b9050614780848483614927565b9050600061478f8585846121ba565b9250905060005b81811015611133576147a9868685614927565b9250806147b5816151a3565b915050614796565b60006147ca603883615321565b90508281106147d857600080fd5b60388483016030013560c01c0201828111156110945760405162461bcd60e51b815260206004820152601460248201527f736b69705f6d65726b6c655f70726f6f665f626500000000000000000000000060448201526064016100d3565b60006148438484846110cf565b905061485084848361106d565b905061485d848483613918565b905061486a8484836147bd565b90506000614879858584612a68565b9250905060005b81811015611133576148938686856147bd565b92508061489f816151a3565b915050614880565b6000806148b58585856138af565b9050612b428585836121ce565b6000806148d08585856138af565b90506148dd8585836121ce565b90506148ea858583613a59565b9050612b42858583614927565b60006149048484846138af565b90506149118484836121ce565b905061491e848483613a59565b9050612e198484835b6000614934603883615321565b6038949092016030013560c01c939093020192915050565b6000808584016010810135906030013560c01c61496a8160386153b3565b614975906038615321565b92506000614984603888615321565b905060008982016008013560c01c8080156149a657600181146149af576149b4565b886020526149b4565b886000525b505060005b6149c460018561530a565b811015614aa2576149d68160386153b3565b6149e160388b615321565b6149eb9190615321565b92506149f8836018615321565b91508a8301600881013560c090811c9160400135901c818015614a225760018114614a5957614a8c565b8d850135600052818015614a3d5760018114614a4a57614a53565b6040600020602052614a53565b60406000206000525b50614a8c565b8d850135602052818015614a745760018114614a8157614a8a565b6040600020602052614a8a565b60406000206000525b505b5050508080614a9a906151a3565b9150506149b9565b50614aae60018461530a565b614ab99060386153b3565b614ac460388a615321565b614ace9190615321565b9150614adb826018615321565b90508982016008013560c01c808015614afb5760018114614b0e57614b1d565b828c013560005260406000209850614b1d565b828c0135602052604060002098505b505083871495505050505094509492505050565b600080838310614b4057600080fd5b604080516080810182526000808252602082018190529181018290526060810191909152614b6e848661530a565b6020820152614b7f60486008615321565b614b899083615321565b91508060200151821115614b9c57600080fd5b8584016048013560c01c60028114614bb957600160005260206000fd5b8060200283019250508060200151821115614bd357600080fd5b614bdd8285615321565b614bf18787614bec8689615321565b614927565b614bfb919061530a565b614c059083615321565b6020820151909250614c18836008615321565b1115614c2357600080fd5b83820186013560c01c60028114614c3f57600160005260206000fd5b50614c4b600883615321565b915060005b6002811015614cc0576020810285018701605001358252614c7d8787614c768689615321565b8551614d69565b6040840152151560608301819052614c9d57600080935093505050614cc7565b6040820151614cac9084615321565b925080614cb8816151a3565b915050614c50565b5060019250505b935093915050565b602083028501870160500135846110625760008085614d1f57614cfb8460a00151868660000151613dd4565b8451614d07919061530a565b915061414161413a8560c00151878760000151613dd4565b85600114156141de57614d408460a00151868660000151614186919061530a565b8451614d4c919061530a565b91506141db61413a8560c001518787600001516141d4919061530a565b6000808584016010810135906030013560c01c614d878160386153b3565b614d92906038615321565b92506000614da1603888615321565b90506000600882018a013560c01c876000528060008114614dc95760018114614dd657614ddf565b6020600020602052614ddf565b60206000206000525b505060005b614def60018561530a565b811015614aa257614e018160386153b3565b614e0c60388b615321565b614e169190615321565b9250614e23836018615321565b91508a8301600881013560c090811c9160400135901c818015614e4d5760018114614e8457614eb7565b8d850135600052818015614e685760018114614e7557614e7e565b6040600020602052614e7e565b60406000206000525b50614eb7565b8d850135602052818015614e9f5760018114614eac57614eb5565b6040600020602052614eb5565b60406000206000525b505b5050508080614ec5906151a3565b915050614de4565b6000611185826020615321565b6040518060c00160405280614f6c60405180610220016040528060008152602001600081526020016000815260200160008152602001600081526020016000815260200160008152602001600081526020016000815260200160008152602001600081526020016000815260200160008152602001600081526020016000815260200160008152602001600081525090565b81526000602080830182905260408051918201815291815290820152606001614f93615015565b8152602001614fe76040518061012001604052806000815260200160008152602001600081526020016000815260200160008152602001606081526020016060815260200160608152602001606081525090565b815260200161501060405180606001604052806000815260200160008152602001606081525090565b905290565b6040518060a00160405280600081526020016000815260200160008152602001600081526020016150106040518060e00160405280600081526020016000815260200160008152602001606081526020016060815260200160608152602001606081525090565b60008083601f84011261508e57600080fd5b50813567ffffffffffffffff8111156150a657600080fd5b6020830191508360208260051b85010111156150c157600080fd5b9250929050565b600080600080600080606087890312156150e157600080fd5b863567ffffffffffffffff808211156150f957600080fd5b818901915089601f83011261510d57600080fd5b81358181111561511c57600080fd5b8a602082850101111561512e57600080fd5b60209283019850965090880135908082111561514957600080fd5b6151558a838b0161507c565b9096509450604089013591508082111561516e57600080fd5b5061517b89828a0161507c565b979a9699509497509295939492505050565b634e487b7160e01b600052601160045260246000fd5b60006000198214156151b7576151b761518d565b5060010190565b634e487b7160e01b600052603260045260246000fd5b634e487b7160e01b600052604160045260246000fd5b604051601f8201601f1916810167ffffffffffffffff81118282101715615213576152136151d4565b604052919050565b600067ffffffffffffffff821115615235576152356151d4565b5060051b60200190565b600061525261524d8461521b565b6151ea565b83815260208082019190600586811b86013681111561527057600080fd5b865b818110156152fd57803567ffffffffffffffff8111156152925760008081fd5b880136601f8201126152a45760008081fd5b80356152b261524d8261521b565b81815290851b820186019086810190368311156152cf5760008081fd5b928701925b828410156152ed578335825292870192908701906152d4565b8952505050948301948301615272565b5092979650505050505050565b60008282101561531c5761531c61518d565b500390565b600082198211156153345761533461518d565b500190565b6000808212827f7fffffffffffffffffffffffffffffffffffffffffffffffffffffffffffffff038413811516156153735761537361518d565b82600160ff1b03841281161561538b5761538b61518d565b50500190565b6000826153ae57634e487b7160e01b600052601260045260246000fd5b500690565b60008160001904831182151516156153cd576153cd61518d565b500290565b600181815b8085111561540d5781600019048211156153f3576153f361518d565b8085161561540057918102915b93841c93908002906153d7565b509250929050565b600082615424575060016117d2565b81615431575060006117d2565b816001811461544757600281146154515761546d565b60019150506117d2565b60ff8411156154625761546261518d565b50506001821b6117d2565b5060208310610133831016604e8410600b8410161715615490575081810a6117d2565b61549a83836153d2565b80600019048211156154ae576154ae61518d565b029392505050565b60006117cf838361541556fea2646970667358221220ed4c9f3ef46cc32cb6f595d714adad6a1c6de355d16e39529bb90caa70fd12ba64736f6c634300080c0033",
  "immutableReferences": {},
  "source": "// SPDX-License-Identifier: Apache-2.0.\n//---------------------------------------------------------------------------//\n// Copyright (c) 2022 Mikhail Komarov <nemo@nil.foundation>\n// Copyright (c) 2022 Ilias Khairullin <ilias@nil.foundation>\n//\n// Licensed under the Apache License, Version 2.0 (the \"License\");\n// you may not use this file except in compliance with the License.\n// You may obtain a copy of the License at\n//\n//    http://www.apache.org/licenses/LICENSE-2.0\n//\n// Unless required by applicable law or agreed to in writing, software\n// distributed under the License is distributed on an \"AS IS\" BASIS,\n// WITHOUT WARRANTIES OR CONDITIONS OF ANY KIND, either express or implied.\n// See the License for the specific language governing permissions and\n// limitations under the License.\n//---------------------------------------------------------------------------//\npragma solidity >=0.8.4;\n\nimport \"../../types.sol\";\nimport \"../../cryptography/transcript.sol\";\nimport \"../proof_map_parser.sol\";\nimport \"../verifier_unified_addition_component.sol\";\n\ncontract TestPlaceholderVerifierUnifiedAddition {\n    struct test_local_vars {\n        types.placeholder_proof_map proof_map;\n        uint256 proof_size;\n        types.transcript_data tr_state;\n        types.lpc_params_type lpc_params;\n        types.batched_fri_params_type fri_params;\n        types.placeholder_common_data common_data;\n    }\n\n    function verify(\n        bytes calldata blob,\n        // 0) modulus\n        // 1) r\n        // 2) max_degree\n        // 3) leaf_size\n        // 4) lambda\n        // 5) rows_amount\n        // 6) omega\n        // 7) D_omegas_size\n        //  [..., D_omegas_i, ...]\n        // 8 + D_omegas_size) q_size\n        //  [..., q_i, ...]\n        uint256[] calldata init_params,\n        int256[][] calldata columns_rotations\n    ) public {\n        test_local_vars memory vars;\n        (vars.proof_map, vars.proof_size) = placeholder_proof_map_parser\n            .parse_be(blob, 0);\n        require(\n            vars.proof_size == blob.length,\n            \"Proof length was detected incorrectly!\"\n        );\n        transcript.init_transcript(vars.tr_state, hex\"\");\n\n        uint256 idx = 0;\n        vars.fri_params.modulus = init_params[idx++];\n        vars.fri_params.r = init_params[idx++];\n        vars.fri_params.max_degree = init_params[idx++];\n        vars.fri_params.leaf_size = init_params[idx++];\n        vars.fri_params.lambda = init_params[idx++];\n\n        vars.common_data.rows_amount = init_params[idx++];\n        vars.common_data.omega = init_params[idx++];\n        vars.common_data.columns_rotations = columns_rotations;\n\n        vars.fri_params.D_omegas = new uint256[](init_params[idx++]);\n        for (uint256 i = 0; i < vars.fri_params.D_omegas.length; i++) {\n            vars.fri_params.D_omegas[i] = init_params[idx++];\n        }\n        vars.fri_params.q = new uint256[](init_params[idx++]);\n        for (uint256 i = 0; i < vars.fri_params.q.length; i++) {\n            vars.fri_params.q[i] = init_params[idx++];\n        }\n\n        vars.lpc_params.modulus = vars.fri_params.modulus;\n        vars.lpc_params.lambda = vars.fri_params.lambda;\n        vars.lpc_params.r = vars.fri_params.r;\n        vars.lpc_params.m = 2;\n        vars.lpc_params.fri_params.D_omegas = vars.fri_params.D_omegas;\n        vars.lpc_params.fri_params.q = vars.fri_params.q;\n\n        vars.lpc_params.fri_params.modulus = vars.fri_params.modulus;\n        vars.lpc_params.fri_params.max_degree = vars.fri_params.max_degree;\n        vars.lpc_params.fri_params.r = vars.fri_params.r;\n\n        require(\n            placeholder_verifier_unified_addition_component.verify_proof_be(\n                blob,\n                vars.tr_state,\n                vars.proof_map,\n                vars.lpc_params,\n                vars.fri_params,\n                vars.common_data\n            ),\n            \"Proof is not correct!\"\n        );\n    }\n}\n",
  "sourcePath": "/Users/Zerg/Projects/evm-mina-verification/share/aux-proof-verify/contracts/placeholder/test/public_api_placeholder_unified_addition_component.sol",
  "compiler": {
    "name": "solc",
    "version": "0.8.12+commit.f00d7308.Emscripten.clang"
  },
  "schemaVersion": "3.4.6",
  "updatedAt": "2022-04-22T16:59:57.455Z",
  "networkType": "ethereum",
  "devdoc": {
    "kind": "dev",
    "methods": {},
    "version": 1
  },
  "userdoc": {
    "kind": "user",
    "methods": {},
    "version": 1
  }
}